:020000040000FA
:0400000010EF00F00D
:020004000000FA
:08000800F2B480EC00F01000DE
:10002000949094929494956A93683F0E606F0E0E2C
:10003000616FFF0E626FA00E636F070ED56EFF0E2D
:10004000D76EF20ED66EF294D58EF28AF28E81CFF2
:0400500083FFFDD756
:10010000600702E185EF00F0120082B0A2EF00F07C
:1001100082A08CEF00F0120082B2B1EF00F082B446
:1001200094EF00F094EF00F0AF0ED76E62C0D6FFF0
:10013000F2949CEF00F010003F0E606F8292829468
:1001400082701200E80ED76E63C0D6FFF294F28E72
:10015000ABEF00F010003F0E606F829082948272CD
:1001600012008F0ED76E61C0D6FFF294F28EBAEFF6
:1001700000F010003F0E606F829282928274120033
:020000040030CA
:0100010005F9
:0100020010ED
:0100030010EC
:01000500807A
:010006008178
:00000001FF
